S0110000554152545F4C4544732E7372656330
S11300000C942A000C9447000C9447000C9447006D
S11300100C9447000C9447000C9447000C94470040
S11300200C9447000C9447000C94DC020C94470099
S11300300C9447000C9447000C9447000C94470020
S11300400C9447000C9447000C9447000C94470010
S11300500C94470011241FBECFE5D8E0DEBFCDBF0E
S113006010E0A0E6B0E0EEE2F7E002C005900D92E9
S1130070A43BB107D9F720E0A4EBB0E001C01D9286
S1130080AB3BB207E1F70E9449000C9495030C9432
S11300900000CF93DF93CDB7DEB7C351D1400FB685
S11300A0F894DEBF0FBECDBF0E9426030E94BA02A1
S11300B080916400909165000E941B018091620010
S11300C0909163000E941B018091600090916100F7
S11300D00E941B0185E0E4EAF0E0DE01AF5FBE4F61
S11300E001900D928A95E1F781E494E5CA5FDE4FB1
S11300F099838883C650D140C85FDE4F1882C850A8
S1130100D14086E0E9EAF0E0DE01A75FBE4F01904E
S11301100D928A95E1F785E0EFEAF0E0DE01A15F58
S1130120BE4F01900D928A95E1F7CE0101960E948F
S11301307203BE01675F7E4FCE0101960E943301B8
S11301408823D1F080916400909165000E9423017E
S113015080916200909163000E942B018091600065
S1130160909161000E942B0186E690E00E945F035B
S11301708DE00E944E03D9CFBE01615F7E4FCE0158
S113018001960E9433018823D1F0809164009091FC
S113019065000E942B0180916200909163000E948F
S11301A0230180916000909161000E942B0186E7F9
S11301B090E00E945F038DE00E944E03B6CFBE0123
S11301C06F5F7E4FCE0101960E9433018823D1F0E8
S11301D080916400909165000E942B0180916200DF
S11301E0909163000E942B018091600090916100C6
S11301F00E94230184E890E00E945F038DE00E9446
S11302004E0393CFBE016A5F7E4FCE0101960E94DA
S11302103301882341F085E990E00E945F038DE07B
S11302200E944E0382CF88E990E00E945F038DE034
S11302300E944E037ACF41E0692F0E944A01843123
S113024009F481E3089541E0692F0E94400284315A
S113025009F482E3089540E0692F0E94400284314A
S113026009F483E30895DC01FB0106C0992341F0FE
S1130270222331F0119631969C9120819217B1F38B
S1130280911104C0222321F080E0089580E00895B4
S113029081E00895683008F0E7C0813009F43FC078
S11302A038F0823009F472C0833009F4A6C0DEC08D
S11302B0413049F118F0423091F0DAC02AB381E0BC
S11302C090E002C0880F991F6A95E2F78095922FFB
S11302D098239ABB9BB389238BBB80E0089580B796
S11302E08B7F80BF2AB381E090E002C0880F991F02
S11302F06A95E2F7982F909592239ABB9BB3892B2A
S11303008BBB80E008952AB381E090E002C0880F9F
S1130310991F6A95E2F7822B8ABB80E008954130E9
S113032049F118F0423091F0A5C027B381E090E084
S113033002C0880F991F6A95E2F78095922F98233F
S113034097BB98B3892388BB80E0089580B78B7FDF
S113035080BF27B381E090E002C0880F991F6A959F
S1130360E2F7982F9095922397BB98B3892B88BB7B
S113037080E0089527B381E090E002C0880F991FC0
S11303806A95E2F7822B87BB80E00895413049F1FA
S113039018F0423091F070C024B381E090E002C0C4
S11303A0880F991F6A95E2F78095922F982394BB42
S11303B095B3892385BB80E0089580B78B7F80BF88
S11303C024B381E090E002C0880F991F6A95E2F798
S11303D0982F9095922394BB95B3892B85BB80E08D
S11303E0089524B381E090E002C0880F991F6A95B4
S11303F0E2F7822B84BB80E00895413049F118F084
S1130400423091F03BC021B381E090E002C0880FFC
S1130410991F6A95E2F78095922F982391BB9BB31D
S113042089238BBB80E0089580B78B7F80BF21B385
S113043081E090E002C0880F991F6A95E2F7982F37
S11304409095922391BB92B3892B82BB80E008954F
S113045021B381E090E002C0880F991F6A95E2F70A
S1130460822B81BB80E0089582E1089582E10895A2
S113047082E1089582E1089582E1089582E1089578
S1130480683008F06BC0813001F130F08230B1F196
S1130490833009F44BC064C0423008F063C05BB3DE
S11304A021E030E0062E02C0220F331F0A94E2F747
S11304B0842F90E002C0880F991F6A95E2F7209577
S11304C02523822B8BBB80E00895423008F04CC07A
S11304D058B321E030E0062E02C0220F331F0A94E5
S11304E0E2F7842F90E002C0880F991F6A95E2F723
S11304F020952523822B88BB80E008954230B0F5F7
S113050055B321E030E0062E02C0220F331F0A94B7
S1130510E2F7842F90E002C0880F991F6A95E2F7F2
S113052020952523822B85BB80E00895423000F579
S113053052B321E030E0062E02C0220F331F0A948A
S1130540E2F7842F90E002C0880F991F6A95E2F7C2
S113055020952523822B82BB80E0089584E10895B1
S113056084E1089584E1089584E1089584E108957F
S113057084E1089583B78F7B83BF83B7886083BF8B
S11305808FB780688FBF89B7826089BF03B606FCC6
S11305900BC003B603FE0AC00FB607FE09C009B6B6
S11305A001FC08C081E4089581E4089581E408957C
S11305B081E4089580E008951F920F920FB60F9280
S11305C011242F933F934F935F936F937F938F9354
S11305D09F93AF93BF93EF93FF938091B700909154
S11305E0B80001969093B8008093B7002091B700AB
S11305F03091B8008091B9009091BA00281739075A
S1130600A1F48091B4009091B500892B71F01092FF
S1130610B8001092B70089B78D7F89BF1092B600D9
S1130620E091B400F091B5000995FF91EF91BF916D
S1130630AF919F918F917F916F915F914F913F9176
S11306402F910F900FBE0F901F9018958AB1806163
S11306508AB9549B02C080E001C081E89AB19860D5
S11306609AB9539B81E890B5906890BD579B81E8F7
S113067090B59F7B90BD569981E890B590BD90B59B
S1130680977F90BD90B5966090BD90B59F7790BDD3
S1130690579981E810BC93E399B908955D9BFECF07
S11306A08CB98CB182E80895009739F05F9BFECF36
S11306B02CB1FC01208380E0089583E808951F9302
S11306C0CF93DF93EC0110E005C00E944E0381112B
S11306D014E8219688818111F8CF812FDF91CF9181
S11306E01F9108950F931F93CF93DF938C010E9462
S11306F05403811102C0D0E001C0D5E8C0E008C0B5
S1130700CF5FC8018C0F911D0E9454038111D5E85D
S1130710F801EC0FF11D80818D3091F710828D2F3F
S1110720DF91CF911F910F910895F894FFCFB0
S113072E010501060104477265656E204C4544209F
S113073E6973206F6E00526564204C4544206973C2
S113074E206F6E0059656C6C6F77204C45442069A0
S113075E73206F6E004F4B0057726F6E6720496E99
S113076E7075740057414954005354415254005308
S107077E544F500080
S9030000FC
